{
  "address": "0xe7f1725E7734CE288F8367e1Bb143E90bb3F0512",
  "abi": [
    {
      "inputs": [
        {
          "internalType": "address",
          "name": "s_priceFeedAddress",
          "type": "address"
        }
      ],
      "stateMutability": "nonpayable",
      "type": "constructor"
    },
    {
      "inputs": [],
      "name": "FundMe__Noti_owner",
      "type": "error"
    },
    {
      "stateMutability": "payable",
      "type": "fallback"
    },
    {
      "inputs": [],
      "name": "cheapWithdraw",
      "outputs": [],
      "stateMutability": "payable",
      "type": "function"
    },
    {
      "inputs": [],
      "name": "fund",
      "outputs": [],
      "stateMutability": "payable",
      "type": "function"
    },
    {
      "inputs": [
        {
          "internalType": "address",
          "name": "funder",
          "type": "address"
        }
      ],
      "name": "getAddressToAmountFunded",
      "outputs": [
        {
          "internalType": "uint256",
          "name": "",
          "type": "uint256"
        }
      ],
      "stateMutability": "view",
      "type": "function"
    },
    {
      "inputs": [
        {
          "internalType": "uint256",
          "name": "index",
          "type": "uint256"
        }
      ],
      "name": "getFunders",
      "outputs": [
        {
          "internalType": "address",
          "name": "",
          "type": "address"
        }
      ],
      "stateMutability": "view",
      "type": "function"
    },
    {
      "inputs": [],
      "name": "getOwner",
      "outputs": [
        {
          "internalType": "address",
          "name": "",
          "type": "address"
        }
      ],
      "stateMutability": "view",
      "type": "function"
    },
    {
      "inputs": [],
      "name": "getPriceFeed",
      "outputs": [
        {
          "internalType": "contract AggregatorV3Interface",
          "name": "",
          "type": "address"
        }
      ],
      "stateMutability": "view",
      "type": "function"
    },
    {
      "inputs": [],
      "name": "minimumUsd",
      "outputs": [
        {
          "internalType": "uint256",
          "name": "",
          "type": "uint256"
        }
      ],
      "stateMutability": "view",
      "type": "function"
    },
    {
      "inputs": [],
      "name": "withdraw",
      "outputs": [],
      "stateMutability": "payable",
      "type": "function"
    },
    {
      "stateMutability": "payable",
      "type": "receive"
    }
  ],
  "transactionHash": "0x4d3fe38cd5048bad44d030fae72289f598798c69ae410a13a4de3d342717202c",
  "args": [
    "0x5FbDB2315678afecb367f032d93F642f64180aa3"
  ],
  "numDeployments": 1,
  "solcInputHash": "443b893fa7c9ae947148c8b8c27cd888",
  "bytecode": "0x60a06040523480156200001157600080fd5b50604051620011eb380380620011eb83398181016040528101906200003791906200011c565b3373ffffffffffffffffffffffffffffffffffffffff1660808173ffffffffffffffffffffffffffffffffffffffff1681525050806000806101000a81548173ffffffffffffffffffffffffffffffffffffffff021916908373ffffffffffffffffffffffffffffffffffffffff160217905550506200014e565b600080fd5b600073ffffffffffffffffffffffffffffffffffffffff82169050919050565b6000620000e482620000b7565b9050919050565b620000f681620000d7565b81146200010257600080fd5b50565b6000815190506200011681620000eb565b92915050565b600060208284031215620001355762000134620000b2565b5b6000620001458482850162000105565b91505092915050565b60805161107362000178600039600081816103300152818161061d015261086101526110736000f3fe60806040526004361061007f5760003560e01c80633ccfd60b1161004e5780633ccfd60b14610147578063893d20e8146101515780639e87a5cd1461017c578063b60d4288146101a75761008e565b80630343fb2514610098578063098de820146100d5578063206ddccd146101005780633a7b6c741461010a5761008e565b3661008e5761008c6101b1565b005b6100966101b1565b005b3480156100a457600080fd5b506100bf60048036038101906100ba9190610a85565b6102d8565b6040516100cc9190610acb565b60405180910390f35b3480156100e157600080fd5b506100ea610321565b6040516100f79190610acb565b60405180910390f35b61010861032e565b005b34801561011657600080fd5b50610131600480360381019061012c9190610b12565b6105d3565b60405161013e9190610b4e565b60405180910390f35b61014f61061b565b005b34801561015d57600080fd5b5061016661085d565b6040516101739190610b4e565b60405180910390f35b34801561018857600080fd5b50610191610885565b60405161019e9190610bc8565b60405180910390f35b6101af6101b1565b005b6802b5e3af16b18800006101ee60008054906101000a900473ffffffffffffffffffffffffffffffffffffffff16346108ae90919063ffffffff16565b101561022f576040517f08c379a000000000000000000000000000000000000000000000000000000000815260040161022690610c40565b60405180910390fd5b6001339080600181540180825580915050600190039060005260206000200160009091909190916101000a81548173ffffffffffffffffffffffffffffffffffffffff021916908373ffffffffffffffffffffffffffffffffffffffff16021790555034600260003373ffffffffffffffffffffffffffffffffffffffff1673ffffffffffffffffffffffffffffffffffffffff16815260200190815260200160002081905550565b6000600260008373ffffffffffffffffffffffffffffffffffffffff1673ffffffffffffffffffffffffffffffffffffffff168152602001908152602001600020549050919050565b6802b5e3af16b188000081565b7f000000000000000000000000000000000000000000000000000000000000000073ffffffffffffffffffffffffffffffffffffffff163373ffffffffffffffffffffffffffffffffffffffff16146103b3576040517f23e76e8400000000000000000000000000000000000000000000000000000000815260040160405180910390fd5b6000600180548060200260200160405190810160405280929190818152602001828054801561043757602002820191906000526020600020905b8160009054906101000a900473ffffffffffffffffffffffffffffffffffffffff1673ffffffffffffffffffffffffffffffffffffffff16815260200190600101908083116103ed575b5050505050905060005b81518110156104c257600082828151811061045f5761045e610c60565b5b602002602001015190506000600260008373ffffffffffffffffffffffffffffffffffffffff1673ffffffffffffffffffffffffffffffffffffffff168152602001908152602001600020819055505080806104ba90610cbe565b915050610441565b50600067ffffffffffffffff8111156104de576104dd610d06565b5b60405190808252806020026020018201604052801561050c5781602001602082028036833780820191505090505b506001908051906020019061052292919061097b565b5060003373ffffffffffffffffffffffffffffffffffffffff164760405161054990610d66565b60006040518083038185875af1925050503d8060008114610586576040519150601f19603f3d011682016040523d82523d6000602084013e61058b565b606091505b50509050806105cf576040517f08c379a00000000000000000000000000000000000000000000000000000000081526004016105c690610dc7565b60405180910390fd5b5050565b6000600182815481106105e9576105e8610c60565b5b9060005260206000200160009054906101000a900473ffffffffffffffffffffffffffffffffffffffff169050919050565b7f000000000000000000000000000000000000000000000000000000000000000073ffffffffffffffffffffffffffffffffffffffff163373ffffffffffffffffffffffffffffffffffffffff16146106a0576040517f23e76e8400000000000000000000000000000000000000000000000000000000815260040160405180910390fd5b60005b60018054905081101561074d576000600182815481106106c6576106c5610c60565b5b9060005260206000200160009054906101000a900473ffffffffffffffffffffffffffffffffffffffff1690506000600260008373ffffffffffffffffffffffffffffffffffffffff1673ffffffffffffffffffffffffffffffffffffffff16815260200190815260200160002081905550506001816107469190610de7565b90506106a3565b50600067ffffffffffffffff81111561076957610768610d06565b5b6040519080825280602002602001820160405280156107975781602001602082028036833780820191505090505b50600190805190602001906107ad92919061097b565b5060003373ffffffffffffffffffffffffffffffffffffffff16476040516107d490610d66565b60006040518083038185875af1925050503d8060008114610811576040519150601f19603f3d011682016040523d82523d6000602084013e610816565b606091505b505090508061085a576040517f08c379a000000000000000000000000000000000000000000000000000000000815260040161085190610dc7565b60405180910390fd5b50565b60007f0000000000000000000000000000000000000000000000000000000000000000905090565b60008060009054906101000a900473ffffffffffffffffffffffffffffffffffffffff16905090565b6000806108ba836108ea565b90506000670de0b6b3a764000085836108d39190610e1b565b6108dd9190610e8c565b9050809250505092915050565b6000808273ffffffffffffffffffffffffffffffffffffffff1663feaf968c6040518163ffffffff1660e01b815260040160a060405180830381865afa158015610938573d6000803e3d6000fd5b505050506040513d601f19601f8201168201806040525081019061095c9190610f4a565b5050509150506402540be400816109739190610fc5565b915050919050565b8280548282559060005260206000209081019282156109f4579160200282015b828111156109f35782518260006101000a81548173ffffffffffffffffffffffffffffffffffffffff021916908373ffffffffffffffffffffffffffffffffffffffff1602179055509160200191906001019061099b565b5b509050610a019190610a05565b5090565b5b80821115610a1e576000816000905550600101610a06565b5090565b600080fd5b600073ffffffffffffffffffffffffffffffffffffffff82169050919050565b6000610a5282610a27565b9050919050565b610a6281610a47565b8114610a6d57600080fd5b50565b600081359050610a7f81610a59565b92915050565b600060208284031215610a9b57610a9a610a22565b5b6000610aa984828501610a70565b91505092915050565b6000819050919050565b610ac581610ab2565b82525050565b6000602082019050610ae06000830184610abc565b92915050565b610aef81610ab2565b8114610afa57600080fd5b50565b600081359050610b0c81610ae6565b92915050565b600060208284031215610b2857610b27610a22565b5b6000610b3684828501610afd565b91505092915050565b610b4881610a47565b82525050565b6000602082019050610b636000830184610b3f565b92915050565b6000819050919050565b6000610b8e610b89610b8484610a27565b610b69565b610a27565b9050919050565b6000610ba082610b73565b9050919050565b6000610bb282610b95565b9050919050565b610bc281610ba7565b82525050565b6000602082019050610bdd6000830184610bb9565b92915050565b600082825260208201905092915050565b7f6469646e27742073656e6420656e6f7567680000000000000000000000000000600082015250565b6000610c2a601283610be3565b9150610c3582610bf4565b602082019050919050565b60006020820190508181036000830152610c5981610c1d565b9050919050565b7f4e487b7100000000000000000000000000000000000000000000000000000000600052603260045260246000fd5b7f4e487b7100000000000000000000000000000000000000000000000000000000600052601160045260246000fd5b6000610cc982610ab2565b91507fffffffffffffffffffffffffffffffffffffffffffffffffffffffffffffffff8203610cfb57610cfa610c8f565b5b600182019050919050565b7f4e487b7100000000000000000000000000000000000000000000000000000000600052604160045260246000fd5b600081905092915050565b50565b6000610d50600083610d35565b9150610d5b82610d40565b600082019050919050565b6000610d7182610d43565b9150819050919050565b7f6661696c65640000000000000000000000000000000000000000000000000000600082015250565b6000610db1600683610be3565b9150610dbc82610d7b565b602082019050919050565b60006020820190508181036000830152610de081610da4565b9050919050565b6000610df282610ab2565b9150610dfd83610ab2565b9250828201905080821115610e1557610e14610c8f565b5b92915050565b6000610e2682610ab2565b9150610e3183610ab2565b9250828202610e3f81610ab2565b91508282048414831517610e5657610e55610c8f565b5b5092915050565b7f4e487b7100000000000000000000000000000000000000000000000000000000600052601260045260246000fd5b6000610e9782610ab2565b9150610ea283610ab2565b925082610eb257610eb1610e5d565b5b828204905092915050565b600069ffffffffffffffffffff82169050919050565b610edc81610ebd565b8114610ee757600080fd5b50565b600081519050610ef981610ed3565b92915050565b6000819050919050565b610f1281610eff565b8114610f1d57600080fd5b50565b600081519050610f2f81610f09565b92915050565b600081519050610f4481610ae6565b92915050565b600080600080600060a08688031215610f6657610f65610a22565b5b6000610f7488828901610eea565b9550506020610f8588828901610f20565b9450506040610f9688828901610f35565b9350506060610fa788828901610f35565b9250506080610fb888828901610eea565b9150509295509295909350565b6000610fd082610eff565b9150610fdb83610eff565b9250828202610fe981610eff565b91507f8000000000000000000000000000000000000000000000000000000000000000841460008412161561102157611020610c8f565b5b828205841483151761103657611035610c8f565b5b509291505056fea26469706673582212201785cef285a286bc8d31c3161dfcc0812a8a383afb0c534a869ff1cac6c5bbaf64736f6c63430008110033",
  "devdoc": {
    "kind": "dev",
    "methods": {},
    "version": 1
  },
  "userdoc": {
    "kind": "user",
    "methods": {},
    "version": 1
  },
  "storageLayout": {
    "storage": [
      {
        "astId": 61,
        "contract": "contracts/FundMe.sol:FundMe",
        "label": "s_priceFeed",
        "offset": 0,
        "slot": "0",
        "type": "t_contract(AggregatorV3Interface)45"
      },
      {
        "astId": 64,
        "contract": "contracts/FundMe.sol:FundMe",
        "label": "s_funders",
        "offset": 0,
        "slot": "1",
        "type": "t_array(t_address)dyn_storage"
      },
      {
        "astId": 68,
        "contract": "contracts/FundMe.sol:FundMe",
        "label": "s_addressToAmountFunded",
        "offset": 0,
        "slot": "2",
        "type": "t_mapping(t_address,t_uint256)"
      }
    ],
    "types": {
      "t_address": {
        "encoding": "inplace",
        "label": "address",
        "numberOfBytes": "20"
      },
      "t_array(t_address)dyn_storage": {
        "base": "t_address",
        "encoding": "dynamic_array",
        "label": "address[]",
        "numberOfBytes": "32"
      },
      "t_contract(AggregatorV3Interface)45": {
        "encoding": "inplace",
        "label": "contract AggregatorV3Interface",
        "numberOfBytes": "20"
      },
      "t_mapping(t_address,t_uint256)": {
        "encoding": "mapping",
        "key": "t_address",
        "label": "mapping(address => uint256)",
        "numberOfBytes": "32",
        "value": "t_uint256"
      },
      "t_uint256": {
        "encoding": "inplace",
        "label": "uint256",
        "numberOfBytes": "32"
      }
    }
  }
}